{
  "address": "0xe0898BaC5838F3AFB6E8D3fE0A0165515AF57Ae2",
  "abi": [
    {
      "inputs": [
        {
          "internalType": "address",
          "name": "admin_",
          "type": "address"
        },
        {
          "internalType": "uint256",
          "name": "delay_",
          "type": "uint256"
        }
      ],
      "payable": false,
      "stateMutability": "nonpayable",
      "type": "constructor"
    },
    {
      "anonymous": false,
      "inputs": [
        {
          "indexed": true,
          "internalType": "bytes32",
          "name": "txHash",
          "type": "bytes32"
        },
        {
          "indexed": true,
          "internalType": "address",
          "name": "target",
          "type": "address"
        },
        {
          "indexed": false,
          "internalType": "uint256",
          "name": "value",
          "type": "uint256"
        },
        {
          "indexed": false,
          "internalType": "string",
          "name": "signature",
          "type": "string"
        },
        {
          "indexed": false,
          "internalType": "bytes",
          "name": "data",
          "type": "bytes"
        },
        {
          "indexed": false,
          "internalType": "uint256",
          "name": "eta",
          "type": "uint256"
        }
      ],
      "name": "CancelTransaction",
      "type": "event"
    },
    {
      "anonymous": false,
      "inputs": [
        {
          "indexed": true,
          "internalType": "bytes32",
          "name": "txHash",
          "type": "bytes32"
        },
        {
          "indexed": true,
          "internalType": "address",
          "name": "target",
          "type": "address"
        },
        {
          "indexed": false,
          "internalType": "uint256",
          "name": "value",
          "type": "uint256"
        },
        {
          "indexed": false,
          "internalType": "string",
          "name": "signature",
          "type": "string"
        },
        {
          "indexed": false,
          "internalType": "bytes",
          "name": "data",
          "type": "bytes"
        },
        {
          "indexed": false,
          "internalType": "uint256",
          "name": "eta",
          "type": "uint256"
        }
      ],
      "name": "ExecuteTransaction",
      "type": "event"
    },
    {
      "anonymous": false,
      "inputs": [
        {
          "indexed": true,
          "internalType": "address",
          "name": "newAdmin",
          "type": "address"
        }
      ],
      "name": "NewAdmin",
      "type": "event"
    },
    {
      "anonymous": false,
      "inputs": [
        {
          "indexed": true,
          "internalType": "uint256",
          "name": "newDelay",
          "type": "uint256"
        }
      ],
      "name": "NewDelay",
      "type": "event"
    },
    {
      "anonymous": false,
      "inputs": [
        {
          "indexed": true,
          "internalType": "address",
          "name": "newPendingAdmin",
          "type": "address"
        }
      ],
      "name": "NewPendingAdmin",
      "type": "event"
    },
    {
      "anonymous": false,
      "inputs": [
        {
          "indexed": true,
          "internalType": "bytes32",
          "name": "txHash",
          "type": "bytes32"
        },
        {
          "indexed": true,
          "internalType": "address",
          "name": "target",
          "type": "address"
        },
        {
          "indexed": false,
          "internalType": "uint256",
          "name": "value",
          "type": "uint256"
        },
        {
          "indexed": false,
          "internalType": "string",
          "name": "signature",
          "type": "string"
        },
        {
          "indexed": false,
          "internalType": "bytes",
          "name": "data",
          "type": "bytes"
        },
        {
          "indexed": false,
          "internalType": "uint256",
          "name": "eta",
          "type": "uint256"
        }
      ],
      "name": "QueueTransaction",
      "type": "event"
    },
    {
      "payable": true,
      "stateMutability": "payable",
      "type": "fallback"
    },
    {
      "constant": true,
      "inputs": [],
      "name": "GRACE_PERIOD",
      "outputs": [
        {
          "internalType": "uint256",
          "name": "",
          "type": "uint256"
        }
      ],
      "payable": false,
      "stateMutability": "view",
      "type": "function"
    },
    {
      "constant": true,
      "inputs": [],
      "name": "MAXIMUM_DELAY",
      "outputs": [
        {
          "internalType": "uint256",
          "name": "",
          "type": "uint256"
        }
      ],
      "payable": false,
      "stateMutability": "view",
      "type": "function"
    },
    {
      "constant": true,
      "inputs": [],
      "name": "MINIMUM_DELAY",
      "outputs": [
        {
          "internalType": "uint256",
          "name": "",
          "type": "uint256"
        }
      ],
      "payable": false,
      "stateMutability": "view",
      "type": "function"
    },
    {
      "constant": false,
      "inputs": [],
      "name": "acceptAdmin",
      "outputs": [],
      "payable": false,
      "stateMutability": "nonpayable",
      "type": "function"
    },
    {
      "constant": true,
      "inputs": [],
      "name": "admin",
      "outputs": [
        {
          "internalType": "address",
          "name": "",
          "type": "address"
        }
      ],
      "payable": false,
      "stateMutability": "view",
      "type": "function"
    },
    {
      "constant": false,
      "inputs": [
        {
          "internalType": "address",
          "name": "target",
          "type": "address"
        },
        {
          "internalType": "uint256",
          "name": "value",
          "type": "uint256"
        },
        {
          "internalType": "string",
          "name": "signature",
          "type": "string"
        },
        {
          "internalType": "bytes",
          "name": "data",
          "type": "bytes"
        },
        {
          "internalType": "uint256",
          "name": "eta",
          "type": "uint256"
        }
      ],
      "name": "cancelTransaction",
      "outputs": [],
      "payable": false,
      "stateMutability": "nonpayable",
      "type": "function"
    },
    {
      "constant": false,
      "inputs": [
        {
          "internalType": "uint256",
          "name": "id",
          "type": "uint256"
        }
      ],
      "name": "cancelTransactionWithID",
      "outputs": [],
      "payable": false,
      "stateMutability": "nonpayable",
      "type": "function"
    },
    {
      "constant": true,
      "inputs": [],
      "name": "delay",
      "outputs": [
        {
          "internalType": "uint256",
          "name": "",
          "type": "uint256"
        }
      ],
      "payable": false,
      "stateMutability": "view",
      "type": "function"
    },
    {
      "constant": false,
      "inputs": [
        {
          "internalType": "address",
          "name": "target",
          "type": "address"
        },
        {
          "internalType": "uint256",
          "name": "value",
          "type": "uint256"
        },
        {
          "internalType": "string",
          "name": "signature",
          "type": "string"
        },
        {
          "internalType": "bytes",
          "name": "data",
          "type": "bytes"
        },
        {
          "internalType": "uint256",
          "name": "eta",
          "type": "uint256"
        }
      ],
      "name": "executeTransaction",
      "outputs": [
        {
          "internalType": "bytes",
          "name": "",
          "type": "bytes"
        }
      ],
      "payable": true,
      "stateMutability": "payable",
      "type": "function"
    },
    {
      "constant": false,
      "inputs": [
        {
          "internalType": "uint256",
          "name": "id",
          "type": "uint256"
        }
      ],
      "name": "executeTransactionWithID",
      "outputs": [
        {
          "internalType": "bytes",
          "name": "",
          "type": "bytes"
        }
      ],
      "payable": true,
      "stateMutability": "payable",
      "type": "function"
    },
    {
      "constant": true,
      "inputs": [],
      "name": "getBlockTimestamp",
      "outputs": [
        {
          "internalType": "uint256",
          "name": "",
          "type": "uint256"
        }
      ],
      "payable": false,
      "stateMutability": "view",
      "type": "function"
    },
    {
      "constant": true,
      "inputs": [],
      "name": "pendingAdmin",
      "outputs": [
        {
          "internalType": "address",
          "name": "",
          "type": "address"
        }
      ],
      "payable": false,
      "stateMutability": "view",
      "type": "function"
    },
    {
      "constant": false,
      "inputs": [
        {
          "internalType": "address",
          "name": "target",
          "type": "address"
        },
        {
          "internalType": "uint256",
          "name": "value",
          "type": "uint256"
        },
        {
          "internalType": "string",
          "name": "signature",
          "type": "string"
        },
        {
          "internalType": "bytes",
          "name": "data",
          "type": "bytes"
        },
        {
          "internalType": "uint256",
          "name": "eta",
          "type": "uint256"
        }
      ],
      "name": "queueTransaction",
      "outputs": [
        {
          "internalType": "bytes32",
          "name": "",
          "type": "bytes32"
        }
      ],
      "payable": false,
      "stateMutability": "nonpayable",
      "type": "function"
    },
    {
      "constant": true,
      "inputs": [
        {
          "internalType": "bytes32",
          "name": "",
          "type": "bytes32"
        }
      ],
      "name": "queuedTransactions",
      "outputs": [
        {
          "internalType": "bool",
          "name": "",
          "type": "bool"
        }
      ],
      "payable": false,
      "stateMutability": "view",
      "type": "function"
    },
    {
      "constant": false,
      "inputs": [
        {
          "internalType": "uint256",
          "name": "delay_",
          "type": "uint256"
        }
      ],
      "name": "setDelay",
      "outputs": [],
      "payable": false,
      "stateMutability": "nonpayable",
      "type": "function"
    },
    {
      "constant": false,
      "inputs": [
        {
          "internalType": "address",
          "name": "pendingAdmin_",
          "type": "address"
        }
      ],
      "name": "setPendingAdmin",
      "outputs": [],
      "payable": false,
      "stateMutability": "nonpayable",
      "type": "function"
    },
    {
      "constant": true,
      "inputs": [
        {
          "internalType": "uint256",
          "name": "",
          "type": "uint256"
        }
      ],
      "name": "txQueues",
      "outputs": [
        {
          "internalType": "address",
          "name": "target",
          "type": "address"
        },
        {
          "internalType": "uint256",
          "name": "value",
          "type": "uint256"
        },
        {
          "internalType": "string",
          "name": "signature",
          "type": "string"
        },
        {
          "internalType": "bytes",
          "name": "data",
          "type": "bytes"
        },
        {
          "internalType": "uint256",
          "name": "eta",
          "type": "uint256"
        },
        {
          "internalType": "bytes32",
          "name": "txHash",
          "type": "bytes32"
        }
      ],
      "payable": false,
      "stateMutability": "view",
      "type": "function"
    }
  ],
  "transactionHash": "0x5e49e86db77e149110abf8aac4cb610a6827678c9ac1beaaab363ee1cc492e3d",
  "args": [
    "0xF54b3294616d39749732Ac74F234F46C9ABf29C4",
    "180"
  ],
  "solcInputHash": "1bce0735c73c385e29be49be40e5f17c",
  "bytecode": "0x608060405234801561001057600080fd5b506040516126d73803806126d78339818101604052604081101561003357600080fd5b50805160209091015162278d0081111561007e5760405162461bcd60e51b815260040180806020018281038252603881526020018061269f6038913960400191505060405180910390fd5b600080546001600160a01b039093166001600160a01b0319909316929092179091556002556125ed806100b26000396000f3fe60806040526004361061010e5760003560e01c80636a42b8f8116100a5578063b1b43ae511610074578063e177246e11610059578063e177246e14610837578063f2b0653714610861578063f851a4401461089f5761010e565b8063b1b43ae51461080d578063c1a287e2146108225761010e565b80636a42b8f8146107a4578063796b89b9146107b95780637d645fab146107ce578063a97fec52146107e35761010e565b8063416b8b1a116100e1578063416b8b1a146104995780634dd18bf5146105e957806354dfa75d14610629578063591fcdfe146106465761010e565b80630825f38f146101105780630e18b681146102d657806326782247146102eb5780633a66f90114610329575b005b610261600480360360a081101561012657600080fd5b73ffffffffffffffffffffffffffffffffffffffff8235169160208101359181019060608101604082013564010000000081111561016357600080fd5b82018360208201111561017557600080fd5b8035906020019184600183028401116401000000008311171561019757600080fd5b91908080601f01602080910402602001604051908101604052809392919081815260200183838082843760009201919091525092959493602081019350359150506401000000008111156101ea57600080fd5b8201836020820111156101fc57600080fd5b8035906020019184600183028401116401000000008311171561021e57600080fd5b91908080601f01602080910402602001604051908101604052809392919081815260200183838082843760009201919091525092955050913592506108b4915050565b6040805160208082528351818301528351919283929083019185019080838360005b8381101561029b578181015183820152602001610283565b50505050905090810190601f1680156102c85780820380516001836020036101000a031916815260200191505b509250505060405180910390f35b3480156102e257600080fd5b5061010e610f32565b3480156102f757600080fd5b5061030061101a565b6040805173ffffffffffffffffffffffffffffffffffffffff9092168252519081900360200190f35b34801561033557600080fd5b50610487600480360360a081101561034c57600080fd5b73ffffffffffffffffffffffffffffffffffffffff8235169160208101359181019060608101604082013564010000000081111561038957600080fd5b82018360208201111561039b57600080fd5b803590602001918460018302840111640100000000831117156103bd57600080fd5b91908080601f016020809104026020016040519081016040528093929190818152602001838380828437600092019190915250929594936020810193503591505064010000000081111561041057600080fd5b82018360208201111561042257600080fd5b8035906020019184600183028401116401000000008311171561044457600080fd5b91908080601f0160208091040260200160405190810160405280939291908181526020018383808284376000920191909152509295505091359250611036915050565b60408051918252519081900360200190f35b3480156104a557600080fd5b506104c3600480360360208110156104bc57600080fd5b503561152b565b604051808773ffffffffffffffffffffffffffffffffffffffff1673ffffffffffffffffffffffffffffffffffffffff1681526020018681526020018060200180602001858152602001848152602001838103835287818151815260200191508051906020019080838360005b83811015610548578181015183820152602001610530565b50505050905090810190601f1680156105755780820380516001836020036101000a031916815260200191505b50838103825286518152865160209182019188019080838360005b838110156105a8578181015183820152602001610590565b50505050905090810190601f1680156105d55780820380516001836020036101000a031916815260200191505b509850505050505050505060405180910390f35b3480156105f557600080fd5b5061010e6004803603602081101561060c57600080fd5b503573ffffffffffffffffffffffffffffffffffffffff166116d8565b6102616004803603602081101561063f57600080fd5b50356117a5565b34801561065257600080fd5b5061010e600480360360a081101561066957600080fd5b73ffffffffffffffffffffffffffffffffffffffff823516916020810135918101906060810160408201356401000000008111156106a657600080fd5b8201836020820111156106b857600080fd5b803590602001918460018302840111640100000000831117156106da57600080fd5b91908080601f016020809104026020016040519081016040528093929190818152602001838380828437600092019190915250929594936020810193503591505064010000000081111561072d57600080fd5b82018360208201111561073f57600080fd5b8035906020019184600183028401116401000000008311171561076157600080fd5b91908080601f01602080910402602001604051908101604052809392919081815260200183838082843760009201919091525092955050913592506119ac915050565b3480156107b057600080fd5b50610487611cb0565b3480156107c557600080fd5b50610487611cb6565b3480156107da57600080fd5b50610487611cbb565b3480156107ef57600080fd5b5061010e6004803603602081101561080657600080fd5b5035611cc2565b34801561081957600080fd5b50610487612079565b34801561082e57600080fd5b5061048761207e565b34801561084357600080fd5b5061010e6004803603602081101561085a57600080fd5b5035612085565b34801561086d57600080fd5b5061088b6004803603602081101561088457600080fd5b503561216c565b604080519115158252519081900360200190f35b3480156108ab57600080fd5b50610300612181565b60005460609073ffffffffffffffffffffffffffffffffffffffff163314610927576040517f08c379a00000000000000000000000000000000000000000000000000000000081526004018080602001828103825260388152602001806123006038913960400191505060405180910390fd5b60008686868686604051602001808673ffffffffffffffffffffffffffffffffffffffff1673ffffffffffffffffffffffffffffffffffffffff1681526020018581526020018060200180602001848152602001838103835286818151815260200191508051906020019080838360005b838110156109b0578181015183820152602001610998565b50505050905090810190601f1680156109dd5780820380516001836020036101000a031916815260200191505b50838103825285518152855160209182019187019080838360005b83811015610a105781810151838201526020016109f8565b50505050905090810190601f168015610a3d5780820380516001836020036101000a031916815260200191505b50604080517fffffffffffffffffffffffffffffffffffffffffffffffffffffffffffffffe081840301815291815281516020928301206000818152600390935291205490995060ff169750610ae69650505050505050576040517f08c379a000000000000000000000000000000000000000000000000000000000815260040180806020018281038252603d81526020018061241f603d913960400191505060405180910390fd5b82610aef611cb6565b1015610b46576040517f08c379a00000000000000000000000000000000000000000000000000000000081526004018080602001828103825260458152602001806123a26045913960600191505060405180910390fd5b610b59836212750063ffffffff61219d16565b610b61611cb6565b1115610bb8576040517f08c379a000000000000000000000000000000000000000000000000000000000815260040180806020018281038252603381526020018061236f6033913960400191505060405180910390fd5b600081815260036020526040902080547fffffffffffffffffffffffffffffffffffffffffffffffffffffffffffffff001690558451606090610bfc575083610cd1565b85805190602001208560405160200180837bffffffffffffffffffffffffffffffffffffffffffffffffffffffff19167bffffffffffffffffffffffffffffffffffffffffffffffffffffffff1916815260040182805190602001908083835b60208310610c9957805182527fffffffffffffffffffffffffffffffffffffffffffffffffffffffffffffffe09092019160209182019101610c5c565b6001836020036101000a0380198251168184511680821785525050505050509050019250505060405160208183030381529060405290505b600060608973ffffffffffffffffffffffffffffffffffffffff1689846040518082805190602001908083835b60208310610d3b57805182527fffffffffffffffffffffffffffffffffffffffffffffffffffffffffffffffe09092019160209182019101610cfe565b6001836020036101000a03801982511681845116808217855250505050505090500191505060006040518083038185875af1925050503d8060008114610d9d576040519150601f19603f3d011682016040523d82523d6000602084013e610da2565b606091505b509150915081610dfd576040517f08c379a000000000000000000000000000000000000000000000000000000000815260040180806020018281038252603d815260200180612502603d913960400191505060405180910390fd5b8973ffffffffffffffffffffffffffffffffffffffff16847fa560e3198060a2f10670c1ec5b403077ea6ae93ca8de1c32b451dc1a943cd6e78b8b8b8b604051808581526020018060200180602001848152602001838103835286818151815260200191508051906020019080838360005b83811015610e87578181015183820152602001610e6f565b50505050905090810190601f168015610eb45780820380516001836020036101000a031916815260200191505b50838103825285518152855160209182019187019080838360005b83811015610ee7578181015183820152602001610ecf565b50505050905090810190601f168015610f145780820380516001836020036101000a031916815260200191505b50965050505050505060405180910390a39998505050505050505050565b60015473ffffffffffffffffffffffffffffffffffffffff163314610fa2576040517f08c379a000000000000000000000000000000000000000000000000000000000815260040180806020018281038252603881526020018061245c6038913960400191505060405180910390fd5b60008054337fffffffffffffffffffffffff0000000000000000000000000000000000000000918216178083556001805490921690915560405173ffffffffffffffffffffffffffffffffffffffff909116917f71614071b88dee5e0b2ae578a9dd7b2ebbe9ae832ba419dc0242cd065a290b6c91a2565b60015473ffffffffffffffffffffffffffffffffffffffff1681565b6000805473ffffffffffffffffffffffffffffffffffffffff1633146110a7576040517f08c379a00000000000000000000000000000000000000000000000000000000081526004018080602001828103825260368152602001806124cc6036913960400191505060405180910390fd5b6110c16002546110b5611cb6565b9063ffffffff61219d16565b821015611119576040517f08c379a000000000000000000000000000000000000000000000000000000000815260040180806020018281038252604981526020018061253f6049913960600191505060405180910390fd5b60008686868686604051602001808673ffffffffffffffffffffffffffffffffffffffff1673ffffffffffffffffffffffffffffffffffffffff1681526020018581526020018060200180602001848152602001838103835286818151815260200191508051906020019080838360005b838110156111a257818101518382015260200161118a565b50505050905090810190601f1680156111cf5780820380516001836020036101000a031916815260200191505b50838103825285518152855160209182019187019080838360005b838110156112025781810151838201526020016111ea565b50505050905090810190601f16801561122f5780820380516001836020036101000a031916815260200191505b50604080517fffffffffffffffffffffffffffffffffffffffffffffffffffffffffffffffe0818403018152918152815160209283012060008181526003909352912080547fffffffffffffffffffffffffffffffffffffffffffffffffffffffffffffff0016600117905560045490995097506112b4965061221895505050505050565b506040805160c08101825273ffffffffffffffffffffffffffffffffffffffff8a8116825260208083018b81529383018a8152606084018a90526080840189905260a08401879052600480546001810180835560009290925285517f8a35acfbc15ff81a39ae7d344fd709f28e8600b4aa8c65c6b64bfe7fe36bd19b600690920291820180547fffffffffffffffffffffffff0000000000000000000000000000000000000000169190961617855595517f8a35acfbc15ff81a39ae7d344fd709f28e8600b4aa8c65c6b64bfe7fe36bd19c87015590518051949591948694936113c2937f8a35acfbc15ff81a39ae7d344fd709f28e8600b4aa8c65c6b64bfe7fe36bd19d01920190612267565b50606082015180516113de916003840191602090910190612267565b506080820151816004015560a082015181600501555050508873ffffffffffffffffffffffffffffffffffffffff16837f76e2796dc3a81d57b0e8504b647febcbeeb5f4af818e164f11eef8131a6a763f8a8a8a8a604051808581526020018060200180602001848152602001838103835286818151815260200191508051906020019080838360005b83811015611480578181015183820152602001611468565b50505050905090810190601f1680156114ad5780820380516001836020036101000a031916815260200191505b50838103825285518152855160209182019187019080838360005b838110156114e05781810151838201526020016114c8565b50505050905090810190601f16801561150d5780820380516001836020036101000a031916815260200191505b50965050505050505060405180910390a35090979650505050505050565b6004818154811061153857fe5b6000918252602091829020600691909102018054600180830154600280850180546040805161010096831615969096027fffffffffffffffffffffffffffffffffffffffffffffffffffffffffffffffff0190911692909204601f810188900488028501880190925281845273ffffffffffffffffffffffffffffffffffffffff909416965090949192918301828280156116145780601f106115e957610100808354040283529160200191611614565b820191906000526020600020905b8154815290600101906020018083116115f757829003601f168201915b5050505060038301805460408051602060026001851615610100027fffffffffffffffffffffffffffffffffffffffffffffffffffffffffffffffff0190941693909304601f81018490048402820184019092528181529495949350908301828280156116c25780601f10611697576101008083540402835291602001916116c2565b820191906000526020600020905b8154815290600101906020018083116116a557829003601f168201915b5050505050908060040154908060050154905086565b333014611730576040517f08c379a00000000000000000000000000000000000000000000000000000000081526004018080602001828103825260388152602001806124946038913960400191505060405180910390fd5b600180547fffffffffffffffffffffffff00000000000000000000000000000000000000001673ffffffffffffffffffffffffffffffffffffffff83811691909117918290556040519116907f69d78e38a01985fbb1462961809b4b2d65531bc93b2b94037f3334b82ca4a75690600090a250565b60606117af612218565b600483815481106117bc57fe5b60009182526020918290206040805160c081018252600693909302909101805473ffffffffffffffffffffffffffffffffffffffff1683526001808201548486015260028083018054855161010094821615949094027fffffffffffffffffffffffffffffffffffffffffffffffffffffffffffffffff011691909104601f81018790048702830187018552808352949592949386019391929091908301828280156118a95780601f1061187e576101008083540402835291602001916118a9565b820191906000526020600020905b81548152906001019060200180831161188c57829003601f168201915b505050918352505060038201805460408051602060026001851615610100027fffffffffffffffffffffffffffffffffffffffffffffffffffffffffffffffff0190941693909304601f810184900484028201840190925281815293820193929183018282801561195b5780601f106119305761010080835404028352916020019161195b565b820191906000526020600020905b81548152906001019060200180831161193e57829003601f168201915b5050505050815260200160048201548152602001600582015481525050905060008160a0015190506119a4826000015183602001518460400151856060015186608001516108b4565b949350505050565b60005473ffffffffffffffffffffffffffffffffffffffff163314611a1c576040517f08c379a00000000000000000000000000000000000000000000000000000000081526004018080602001828103825260378152602001806123386037913960400191505060405180910390fd5b60008585858585604051602001808673ffffffffffffffffffffffffffffffffffffffff1673ffffffffffffffffffffffffffffffffffffffff1681526020018581526020018060200180602001848152602001838103835286818151815260200191508051906020019080838360005b83811015611aa5578181015183820152602001611a8d565b50505050905090810190601f168015611ad25780820380516001836020036101000a031916815260200191505b50838103825285518152855160209182019187019080838360005b83811015611b05578181015183820152602001611aed565b50505050905090810190601f168015611b325780820380516001836020036101000a031916815260200191505b5097505050505050505060405160208183030381529060405280519060200120905060006003600083815260200190815260200160002060006101000a81548160ff0219169083151502179055508573ffffffffffffffffffffffffffffffffffffffff16817f2fffc091a501fd91bfbff27141450d3acb40fb8e6d8382b243ec7a812a3aaf8787878787604051808581526020018060200180602001848152602001838103835286818151815260200191508051906020019080838360005b83811015611c0a578181015183820152602001611bf2565b50505050905090810190601f168015611c375780820380516001836020036101000a031916815260200191505b50838103825285518152855160209182019187019080838360005b83811015611c6a578181015183820152602001611c52565b50505050905090810190601f168015611c975780820380516001836020036101000a031916815260200191505b50965050505050505060405180910390a3505050505050565b60025481565b425b90565b62278d0081565b60005473ffffffffffffffffffffffffffffffffffffffff163314611d32576040517f08c379a00000000000000000000000000000000000000000000000000000000081526004018080602001828103825260378152602001806123386037913960400191505060405180910390fd5b611d3a612218565b60048281548110611d4757fe5b60009182526020918290206040805160c081018252600693909302909101805473ffffffffffffffffffffffffffffffffffffffff1683526001808201548486015260028083018054855161010094821615949094027fffffffffffffffffffffffffffffffffffffffffffffffffffffffffffffffff011691909104601f8101879004870283018701855280835294959294938601939192909190830182828015611e345780601f10611e0957610100808354040283529160200191611e34565b820191906000526020600020905b815481529060010190602001808311611e1757829003601f168201915b505050918352505060038201805460408051602060026001851615610100027fffffffffffffffffffffffffffffffffffffffffffffffffffffffffffffffff0190941693909304601f8101849004840282018401909252818152938201939291830182828015611ee65780601f10611ebb57610100808354040283529160200191611ee6565b820191906000526020600020905b815481529060010190602001808311611ec957829003601f168201915b505050505081526020016004820154815260200160058201548152505090506000600360008360a00151815260200190815260200160002060006101000a81548160ff021916908315150217905550806000015173ffffffffffffffffffffffffffffffffffffffff168160a001517f2fffc091a501fd91bfbff27141450d3acb40fb8e6d8382b243ec7a812a3aaf878360200151846040015185606001518660800151604051808581526020018060200180602001848152602001838103835286818151815260200191508051906020019080838360005b83811015611fd7578181015183820152602001611fbf565b50505050905090810190601f1680156120045780820380516001836020036101000a031916815260200191505b50838103825285518152855160209182019187019080838360005b8381101561203757818101518382015260200161201f565b50505050905090810190601f1680156120645780820380516001836020036101000a031916815260200191505b50965050505050505060405180910390a35050565b600081565b6212750081565b3330146120dd576040517f08c379a00000000000000000000000000000000000000000000000000000000081526004018080602001828103825260318152602001806125886031913960400191505060405180910390fd5b62278d00811115612139576040517f08c379a00000000000000000000000000000000000000000000000000000000081526004018080602001828103825260388152602001806123e76038913960400191505060405180910390fd5b600281905560405181907f948b1f6a42ee138b7e34058ba85a37f716d55ff25ff05a763f15bed6a04c8d2c90600090a250565b60036020526000908152604090205460ff1681565b60005473ffffffffffffffffffffffffffffffffffffffff1681565b60008282018381101561221157604080517f08c379a000000000000000000000000000000000000000000000000000000000815260206004820152601b60248201527f536166654d6174683a206164646974696f6e206f766572666c6f770000000000604482015290519081900360640190fd5b9392505050565b6040518060c00160405280600073ffffffffffffffffffffffffffffffffffffffff16815260200160008152602001606081526020016060815260200160008152602001600080191681525090565b828054600181600116156101000203166002900490600052602060002090601f016020900481019282601f106122a857805160ff19168380011785556122d5565b828001600101855582156122d5579182015b828111156122d55782518255916020019190600101906122ba565b506122e19291506122e5565b5090565b611cb891905b808211156122e157600081556001016122eb56fe54696d656c6f636b3a3a657865637574655472616e73616374696f6e3a2043616c6c206d75737420636f6d652066726f6d2061646d696e2e54696d656c6f636b3a3a63616e63656c5472616e73616374696f6e3a2043616c6c206d75737420636f6d652066726f6d2061646d696e2e54696d656c6f636b3a3a657865637574655472616e73616374696f6e3a205472616e73616374696f6e206973207374616c652e54696d656c6f636b3a3a657865637574655472616e73616374696f6e3a205472616e73616374696f6e206861736e2774207375727061737365642074696d65206c6f636b2e54696d656c6f636b3a3a73657444656c61793a2044656c6179206d757374206e6f7420657863656564206d6178696d756d2064656c61792e54696d656c6f636b3a3a657865637574655472616e73616374696f6e3a205472616e73616374696f6e206861736e2774206265656e207175657565642e54696d656c6f636b3a3a61636365707441646d696e3a2043616c6c206d75737420636f6d652066726f6d2070656e64696e6741646d696e2e54696d656c6f636b3a3a73657450656e64696e6741646d696e3a2043616c6c206d75737420636f6d652066726f6d2054696d656c6f636b2e54696d656c6f636b3a3a71756575655472616e73616374696f6e3a2043616c6c206d75737420636f6d652066726f6d2061646d696e2e54696d656c6f636b3a3a657865637574655472616e73616374696f6e3a205472616e73616374696f6e20657865637574696f6e2072657665727465642e54696d656c6f636b3a3a71756575655472616e73616374696f6e3a20457374696d6174656420657865637574696f6e20626c6f636b206d75737420736174697366792064656c61792e54696d656c6f636b3a3a73657444656c61793a2043616c6c206d75737420636f6d652066726f6d2054696d656c6f636b2ea265627a7a723158209a8f59b434e2b9c4275229955272d3afe95b46fa2d383ad285ecc890b290ed0c64736f6c6343000510003254696d656c6f636b3a3a73657444656c61793a2044656c6179206d757374206e6f7420657863656564206d6178696d756d2064656c61792e",
  "devdoc": {
    "methods": {}
  },
  "userdoc": {
    "methods": {}
  },
  "storageLayout": {
    "storage": [
      {
        "astId": 70,
        "contract": "contracts/CHNTimelock.sol:CHNTimelock",
        "label": "admin",
        "offset": 0,
        "slot": "0",
        "type": "t_address"
      },
      {
        "astId": 72,
        "contract": "contracts/CHNTimelock.sol:CHNTimelock",
        "label": "pendingAdmin",
        "offset": 0,
        "slot": "1",
        "type": "t_address"
      },
      {
        "astId": 74,
        "contract": "contracts/CHNTimelock.sol:CHNTimelock",
        "label": "delay",
        "offset": 0,
        "slot": "2",
        "type": "t_uint256"
      },
      {
        "astId": 78,
        "contract": "contracts/CHNTimelock.sol:CHNTimelock",
        "label": "queuedTransactions",
        "offset": 0,
        "slot": "3",
        "type": "t_mapping(t_bytes32,t_bool)"
      },
      {
        "astId": 81,
        "contract": "contracts/CHNTimelock.sol:CHNTimelock",
        "label": "txQueues",
        "offset": 0,
        "slot": "4",
        "type": "t_array(t_struct(TransactionData)94_storage)dyn_storage"
      }
    ],
    "types": {
      "t_address": {
        "encoding": "inplace",
        "label": "address",
        "numberOfBytes": "20"
      },
      "t_array(t_struct(TransactionData)94_storage)dyn_storage": {
        "base": "t_struct(TransactionData)94_storage",
        "encoding": "dynamic_array",
        "label": "struct CHNTimelock.TransactionData[]",
        "numberOfBytes": "32"
      },
      "t_bool": {
        "encoding": "inplace",
        "label": "bool",
        "numberOfBytes": "1"
      },
      "t_bytes32": {
        "encoding": "inplace",
        "label": "bytes32",
        "numberOfBytes": "32"
      },
      "t_bytes_storage": {
        "encoding": "bytes",
        "label": "bytes",
        "numberOfBytes": "32"
      },
      "t_mapping(t_bytes32,t_bool)": {
        "encoding": "mapping",
        "key": "t_bytes32",
        "label": "mapping(bytes32 => bool)",
        "numberOfBytes": "32",
        "value": "t_bool"
      },
      "t_string_storage": {
        "encoding": "bytes",
        "label": "string",
        "numberOfBytes": "32"
      },
      "t_struct(TransactionData)94_storage": {
        "encoding": "inplace",
        "label": "struct CHNTimelock.TransactionData",
        "members": [
          {
            "astId": 83,
            "contract": "contracts/CHNTimelock.sol:CHNTimelock",
            "label": "target",
            "offset": 0,
            "slot": "0",
            "type": "t_address"
          },
          {
            "astId": 85,
            "contract": "contracts/CHNTimelock.sol:CHNTimelock",
            "label": "value",
            "offset": 0,
            "slot": "1",
            "type": "t_uint256"
          },
          {
            "astId": 87,
            "contract": "contracts/CHNTimelock.sol:CHNTimelock",
            "label": "signature",
            "offset": 0,
            "slot": "2",
            "type": "t_string_storage"
          },
          {
            "astId": 89,
            "contract": "contracts/CHNTimelock.sol:CHNTimelock",
            "label": "data",
            "offset": 0,
            "slot": "3",
            "type": "t_bytes_storage"
          },
          {
            "astId": 91,
            "contract": "contracts/CHNTimelock.sol:CHNTimelock",
            "label": "eta",
            "offset": 0,
            "slot": "4",
            "type": "t_uint256"
          },
          {
            "astId": 93,
            "contract": "contracts/CHNTimelock.sol:CHNTimelock",
            "label": "txHash",
            "offset": 0,
            "slot": "5",
            "type": "t_bytes32"
          }
        ],
        "numberOfBytes": "192"
      },
      "t_uint256": {
        "encoding": "inplace",
        "label": "uint256",
        "numberOfBytes": "32"
      }
    }
  }
}